{
  "contractName": "FairPoint",
  "abi": [
    {
      "constant": true,
      "inputs": [],
      "name": "owner",
      "outputs": [
        {
          "name": "",
          "type": "address"
        }
      ],
      "payable": false,
      "stateMutability": "view",
      "type": "function",
      "signature": "0x8da5cb5b"
    },
    {
      "constant": true,
      "inputs": [
        {
          "name": "",
          "type": "bytes32"
        }
      ],
      "name": "files",
      "outputs": [
        {
          "name": "price",
          "type": "uint256"
        },
        {
          "name": "creator",
          "type": "address"
        },
        {
          "name": "buyer",
          "type": "address"
        }
      ],
      "payable": false,
      "stateMutability": "view",
      "type": "function",
      "signature": "0x98c9adff"
    },
    {
      "inputs": [],
      "payable": false,
      "stateMutability": "nonpayable",
      "type": "constructor",
      "signature": "constructor"
    },
    {
      "anonymous": false,
      "inputs": [
        {
          "indexed": false,
          "name": "creator",
          "type": "address"
        },
        {
          "indexed": false,
          "name": "buyer",
          "type": "address"
        },
        {
          "indexed": false,
          "name": "fileName",
          "type": "bytes32"
        }
      ],
      "name": "FilePurchased",
      "type": "event",
      "signature": "0x7d34fd90e55f7418d11aa5747b2178f62c4fd8a0e8abf00585264d1d0f4d3009"
    },
    {
      "constant": false,
      "inputs": [
        {
          "name": "fileName",
          "type": "bytes32"
        },
        {
          "name": "price",
          "type": "uint256"
        }
      ],
      "name": "addFile",
      "outputs": [],
      "payable": false,
      "stateMutability": "nonpayable",
      "type": "function",
      "signature": "0xa54319c3"
    },
    {
      "constant": false,
      "inputs": [
        {
          "name": "fileName",
          "type": "bytes32"
        }
      ],
      "name": "purchaseFile",
      "outputs": [],
      "payable": true,
      "stateMutability": "payable",
      "type": "function",
      "signature": "0x2a713cad"
    },
    {
      "constant": false,
      "inputs": [
        {
          "name": "amount",
          "type": "uint256"
        }
      ],
      "name": "withdrawFunds",
      "outputs": [],
      "payable": false,
      "stateMutability": "nonpayable",
      "type": "function",
      "signature": "0x155dd5ee"
    },
    {
      "constant": true,
      "inputs": [],
      "name": "getBalance",
      "outputs": [
        {
          "name": "",
          "type": "uint256"
        }
      ],
      "payable": false,
      "stateMutability": "view",
      "type": "function",
      "signature": "0x12065fe0"
    }
  ],
  "bytecode": "0x608060405234801561001057600080fd5b50336000806101000a81548173ffffffffffffffffffffffffffffffffffffffff021916908373ffffffffffffffffffffffffffffffffffffffff160217905550610b7b806100606000396000f3fe608060405260043610610078576000357c0100000000000000000000000000000000000000000000000000000000900463ffffffff16806312065fe01461007d578063155dd5ee146100a85780632a713cad146100e35780638da5cb5b1461011157806398c9adff14610168578063a54319c31461021d575b600080fd5b34801561008957600080fd5b50610092610262565b6040518082815260200191505060405180910390f35b3480156100b457600080fd5b506100e1600480360360208110156100cb57600080fd5b81019080803590602001909291905050506102a9565b005b61010f600480360360208110156100f957600080fd5b8101908080359060200190929190505050610388565b005b34801561011d57600080fd5b50610126610803565b604051808273ffffffffffffffffffffffffffffffffffffffff1673ffffffffffffffffffffffffffffffffffffffff16815260200191505060405180910390f35b34801561017457600080fd5b506101a16004803603602081101561018b57600080fd5b8101908080359060200190929190505050610828565b604051808481526020018373ffffffffffffffffffffffffffffffffffffffff1673ffffffffffffffffffffffffffffffffffffffff1681526020018273ffffffffffffffffffffffffffffffffffffffff1673ffffffffffffffffffffffffffffffffffffffff168152602001935050505060405180910390f35b34801561022957600080fd5b506102606004803603604081101561024057600080fd5b810190808035906020019092919080359060200190929190505050610892565b005b6000600160003373ffffffffffffffffffffffffffffffffffffffff1673ffffffffffffffffffffffffffffffffffffffff16815260200190815260200160002054905090565b6102fb81600160003373ffffffffffffffffffffffffffffffffffffffff1673ffffffffffffffffffffffffffffffffffffffff16815260200190815260200160002054610b0c90919063ffffffff16565b600160003373ffffffffffffffffffffffffffffffffffffffff1673ffffffffffffffffffffffffffffffffffffffff168152602001908152602001600020819055503373ffffffffffffffffffffffffffffffffffffffff166108fc829081150290604051600060405180830381858888f19350505050158015610384573d6000803e3d6000fd5b5050565b6000600260008381526020019081526020016000209050600073ffffffffffffffffffffffffffffffffffffffff168160010160009054906101000a900473ffffffffffffffffffffffffffffffffffffffff1673ffffffffffffffffffffffffffffffffffffffff161415151561048e576040517f08c379a00000000000000000000000000000000000000000000000000000000081526004018080602001828103825260348152602001807f6d75737420626520616e206578697374696e672066696c652d2069652e20686181526020017f766520612063726561746f72206164647265737300000000000000000000000081525060400191505060405180910390fd5b600073ffffffffffffffffffffffffffffffffffffffff168160020160009054906101000a900473ffffffffffffffffffffffffffffffffffffffff1673ffffffffffffffffffffffffffffffffffffffff16141515610556576040517f08c379a00000000000000000000000000000000000000000000000000000000081526004018080602001828103825260148152602001807f66696c6520697320616c726561647920736f6c6400000000000000000000000081525060200191505060405180910390fd5b806000015434101515156105f8576040517f08c379a00000000000000000000000000000000000000000000000000000000081526004018080602001828103825260348152602001807f73756666696369656e742066756e6473206e65656420746f2062652073656e7481526020017f20746f2070617920666f72207468652066696c6500000000000000000000000081525060400191505060405180910390fd5b61066e34600160008460010160009054906101000a900473ffffffffffffffffffffffffffffffffffffffff1673ffffffffffffffffffffffffffffffffffffffff1673ffffffffffffffffffffffffffffffffffffffff16815260200190815260200160002054610b2e90919063ffffffff16565b600160008360010160009054906101000a900473ffffffffffffffffffffffffffffffffffffffff1673ffffffffffffffffffffffffffffffffffffffff1673ffffffffffffffffffffffffffffffffffffffff16815260200190815260200160002081905550338160020160006101000a81548173ffffffffffffffffffffffffffffffffffffffff021916908373ffffffffffffffffffffffffffffffffffffffff1602179055507f7d34fd90e55f7418d11aa5747b2178f62c4fd8a0e8abf00585264d1d0f4d30098160010160009054906101000a900473ffffffffffffffffffffffffffffffffffffffff168260020160009054906101000a900473ffffffffffffffffffffffffffffffffffffffff1684604051808473ffffffffffffffffffffffffffffffffffffffff1673ffffffffffffffffffffffffffffffffffffffff1681526020018373ffffffffffffffffffffffffffffffffffffffff1673ffffffffffffffffffffffffffffffffffffffff168152602001828152602001935050505060405180910390a15050565b6000809054906101000a900473ffffffffffffffffffffffffffffffffffffffff1681565b60026020528060005260406000206000915090508060000154908060010160009054906101000a900473ffffffffffffffffffffffffffffffffffffffff16908060020160009054906101000a900473ffffffffffffffffffffffffffffffffffffffff16905083565b6000600260008481526020019081526020016000209050600073ffffffffffffffffffffffffffffffffffffffff168160010160009054906101000a900473ffffffffffffffffffffffffffffffffffffffff1673ffffffffffffffffffffffffffffffffffffffff16141515610997576040517f08c379a00000000000000000000000000000000000000000000000000000000081526004018080602001828103825260388152602001807f6d7573742062652061206e65772066696c652d2069652e2068617665206e6f2081526020017f6578697374696e672063726561746f722061646472657373000000000000000081525060400191505060405180910390fd5b60008214151515610a10576040517f08c379a00000000000000000000000000000000000000000000000000000000081526004018080602001828103825260148152602001807f6d7573742073706563696679206120707269636500000000000000000000000081525060200191505060405180910390fd5b6060604051908101604052808381526020013373ffffffffffffffffffffffffffffffffffffffff168152602001600073ffffffffffffffffffffffffffffffffffffffff16815250600260008581526020019081526020016000206000820151816000015560208201518160010160006101000a81548173ffffffffffffffffffffffffffffffffffffffff021916908373ffffffffffffffffffffffffffffffffffffffff16021790555060408201518160020160006101000a81548173ffffffffffffffffffffffffffffffffffffffff021916908373ffffffffffffffffffffffffffffffffffffffff160217905550905050505050565b6000828211151515610b1d57600080fd5b600082840390508091505092915050565b6000808284019050838110151515610b4557600080fd5b809150509291505056fea165627a7a7230582080569d88afa77ae292c7d3156bce267a31ac6321ccff9f3fad66ff2f48be4d260029",
  "source": "pragma solidity 0.5.0;\n\nimport \"./SafeMath.sol\";\n\ncontract FairPoint {\n\n    using SafeMath for uint256;\n\n    address public owner;\n\n    struct File {\n        uint256 price;\n        address creator;\n        address buyer;\n    }\n\n    mapping (address => uint256) private balances;\n\n    mapping (bytes32 => File) public files;\n\n    event FilePurchased(\n        address creator,\n        address buyer,\n        bytes32 fileName\n    );\n\n    constructor() public{\n        owner = msg.sender;\n    }\n\n    function addFile(bytes32 fileName, uint256 price) public {\n        File storage file = files[fileName];\n        require(file.creator == address(0), \"must be a new file- ie. have no existing creator address\");\n        require(price != 0, \"must specify a price\");\n        files[fileName] = File(price, msg.sender, address(0));\n    }\n\n    function purchaseFile(bytes32 fileName) public payable {\n        File storage file = files[fileName];\n        require(file.creator != address(0), \"must be an existing file- ie. have a creator address\");\n        require(file.buyer == address(0), \"file is already sold\");\n        require(msg.value >= file.price, \"sufficient funds need to be sent to pay for the file\");\n        balances[file.creator] = balances[file.creator].add(msg.value);\n        file.buyer = msg.sender;\n        emit FilePurchased(file.creator, file.buyer, fileName);\n    }\n\n    function withdrawFunds(uint256 amount) public {\n        balances[msg.sender] = balances[msg.sender].sub(amount);\n        msg.sender.transfer(amount);\n    }\n\n    function getBalance()  public view returns (uint256) {\n        return balances[msg.sender];\n    }\n}\n",
  "sourcePath": "/Users/brad/web3/fair-point-client/contracts/FairPoint.sol",
  "compiler": {
    "name": "solc",
    "version": "0.5.0+commit.1d4f565a.Emscripten.clang"
  },
  "schemaVersion": "3.0.1",
  "updatedAt": "2019-01-16T19:04:04.647Z",
  "devdoc": {
    "methods": {}
  },
  "userdoc": {
    "methods": {}
  }
}