{
  "contractName": "FairPoint",
  "abi": [
    {
      "constant": true,
      "inputs": [],
      "name": "owner",
      "outputs": [
        {
          "name": "",
          "type": "address"
        }
      ],
      "payable": false,
      "stateMutability": "view",
      "type": "function"
    },
    {
      "constant": true,
      "inputs": [
        {
          "name": "",
          "type": "bytes32"
        }
      ],
      "name": "files",
      "outputs": [
        {
          "name": "price",
          "type": "uint256"
        },
        {
          "name": "creator",
          "type": "address"
        },
        {
          "name": "buyer",
          "type": "address"
        }
      ],
      "payable": false,
      "stateMutability": "view",
      "type": "function"
    },
    {
      "inputs": [],
      "payable": false,
      "stateMutability": "nonpayable",
      "type": "constructor"
    },
    {
      "anonymous": false,
      "inputs": [
        {
          "indexed": false,
          "name": "creator",
          "type": "address"
        },
        {
          "indexed": false,
          "name": "buyer",
          "type": "address"
        },
        {
          "indexed": false,
          "name": "fileName",
          "type": "bytes32"
        }
      ],
      "name": "FilePurchased",
      "type": "event"
    },
    {
      "constant": false,
      "inputs": [
        {
          "name": "fileName",
          "type": "bytes32"
        },
        {
          "name": "price",
          "type": "uint256"
        }
      ],
      "name": "addFile",
      "outputs": [],
      "payable": false,
      "stateMutability": "nonpayable",
      "type": "function"
    },
    {
      "constant": false,
      "inputs": [
        {
          "name": "fileName",
          "type": "bytes32"
        }
      ],
      "name": "purchaseFile",
      "outputs": [],
      "payable": true,
      "stateMutability": "payable",
      "type": "function"
    }
  ],
  "bytecode": "0x608060405234801561001057600080fd5b50336000806101000a81548173ffffffffffffffffffffffffffffffffffffffff021916908373ffffffffffffffffffffffffffffffffffffffff160217905550610953806100606000396000f300608060405260043610610062576000357c0100000000000000000000000000000000000000000000000000000000900463ffffffff1680632a713cad146100675780638da5cb5b1461008b57806398c9adff146100e2578063a54319c31461018d575b600080fd5b61008960048036038101908080356000191690602001909291905050506101c8565b005b34801561009757600080fd5b506100a06105ed565b604051808273ffffffffffffffffffffffffffffffffffffffff1673ffffffffffffffffffffffffffffffffffffffff16815260200191505060405180910390f35b3480156100ee57600080fd5b506101116004803603810190808035600019169060200190929190505050610612565b604051808481526020018373ffffffffffffffffffffffffffffffffffffffff1673ffffffffffffffffffffffffffffffffffffffff1681526020018273ffffffffffffffffffffffffffffffffffffffff1673ffffffffffffffffffffffffffffffffffffffff168152602001935050505060405180910390f35b34801561019957600080fd5b506101c660048036038101908080356000191690602001909291908035906020019092919050505061067c565b005b60006002600083600019166000191681526020019081526020016000209050600073ffffffffffffffffffffffffffffffffffffffff168160010160009054906101000a900473ffffffffffffffffffffffffffffffffffffffff1673ffffffffffffffffffffffffffffffffffffffff16141515156102d6576040517f08c379a00000000000000000000000000000000000000000000000000000000081526004018080602001828103825260348152602001807f6d75737420626520616e206578697374696e672066696c652d2069652e20686181526020017f766520612063726561746f72206164647265737300000000000000000000000081525060400191505060405180910390fd5b600073ffffffffffffffffffffffffffffffffffffffff168160020160009054906101000a900473ffffffffffffffffffffffffffffffffffffffff1673ffffffffffffffffffffffffffffffffffffffff1614151561039e576040517f08c379a00000000000000000000000000000000000000000000000000000000081526004018080602001828103825260148152602001807f66696c6520697320616c726561647920736f6c6400000000000000000000000081525060200191505060405180910390fd5b80600001543410151515610440576040517f08c379a00000000000000000000000000000000000000000000000000000000081526004018080602001828103825260348152602001807f73756666696369656e742066756e6473206e65656420746f2062652073656e7481526020017f20746f2070617920666f72207468652066696c6500000000000000000000000081525060400191505060405180910390fd5b6104b634600160008460010160009054906101000a900473ffffffffffffffffffffffffffffffffffffffff1673ffffffffffffffffffffffffffffffffffffffff1673ffffffffffffffffffffffffffffffffffffffff1681526020019081526020016000205461090690919063ffffffff16565b50338160020160006101000a81548173ffffffffffffffffffffffffffffffffffffffff021916908373ffffffffffffffffffffffffffffffffffffffff1602179055507f7d34fd90e55f7418d11aa5747b2178f62c4fd8a0e8abf00585264d1d0f4d30098160010160009054906101000a900473ffffffffffffffffffffffffffffffffffffffff168260020160009054906101000a900473ffffffffffffffffffffffffffffffffffffffff1684604051808473ffffffffffffffffffffffffffffffffffffffff1673ffffffffffffffffffffffffffffffffffffffff1681526020018373ffffffffffffffffffffffffffffffffffffffff1673ffffffffffffffffffffffffffffffffffffffff1681526020018260001916600019168152602001935050505060405180910390a15050565b6000809054906101000a900473ffffffffffffffffffffffffffffffffffffffff1681565b60026020528060005260406000206000915090508060000154908060010160009054906101000a900473ffffffffffffffffffffffffffffffffffffffff16908060020160009054906101000a900473ffffffffffffffffffffffffffffffffffffffff16905083565b60006002600084600019166000191681526020019081526020016000209050600073ffffffffffffffffffffffffffffffffffffffff168160010160009054906101000a900473ffffffffffffffffffffffffffffffffffffffff1673ffffffffffffffffffffffffffffffffffffffff16141515610789576040517f08c379a00000000000000000000000000000000000000000000000000000000081526004018080602001828103825260388152602001807f6d7573742062652061206e65772066696c652d2069652e2068617665206e6f2081526020017f6578697374696e672063726561746f722061646472657373000000000000000081525060400191505060405180910390fd5b60008214151515610802576040517f08c379a00000000000000000000000000000000000000000000000000000000081526004018080602001828103825260148152602001807f6d7573742073706563696679206120707269636500000000000000000000000081525060200191505060405180910390fd5b6060604051908101604052808381526020013373ffffffffffffffffffffffffffffffffffffffff168152602001600073ffffffffffffffffffffffffffffffffffffffff168152506002600085600019166000191681526020019081526020016000206000820151816000015560208201518160010160006101000a81548173ffffffffffffffffffffffffffffffffffffffff021916908373ffffffffffffffffffffffffffffffffffffffff16021790555060408201518160020160006101000a81548173ffffffffffffffffffffffffffffffffffffffff021916908373ffffffffffffffffffffffffffffffffffffffff160217905550905050505050565b600080828401905083811015151561091d57600080fd5b80915050929150505600a165627a7a72305820e7ba75c636464b82caa9ffe681ef189c3d6085f99b609d58b92f3b08943965240029",
  "source": "pragma solidity 0.4.24;\n\nimport './SafeMath.sol';\n\ncontract FairPoint {\n\n    using SafeMath for uint256;\n\n    address public owner;\n\n    struct File {\n        uint256 price;\n        address creator;\n        address buyer;\n    }\n\n    mapping (address => uint256) balances;\n\n    mapping (bytes32 => File) public files;\n\n    event FilePurchased(\n        address creator,\n        address buyer,\n        bytes32 fileName\n    );\n\n    constructor() public{\n      owner = msg.sender;\n    }\n\n    function addFile(bytes32 fileName, uint256 price) public {\n\n        File storage file = files[fileName];\n        require(file.creator == address(0), 'must be a new file- ie. have no existing creator address');\n        require(price != 0, 'must specify a price');\n        files[fileName] = File(price, msg.sender, address(0));\n    }\n\n    function purchaseFile(bytes32 fileName) public payable {\n        File storage file = files[fileName];\n        require(file.creator != address(0), 'must be an existing file- ie. have a creator address');\n        require(file.buyer == address(0), 'file is already sold');\n        require(msg.value >= file.price, 'sufficient funds need to be sent to pay for the file');\n        balances[file.creator].add(msg.value);\n        file.buyer = msg.sender;\n        emit FilePurchased(file.creator, file.buyer, fileName);\n    }\n\n    // TODO create destroy & withdraw functions.\n\n}\n",
  "sourcePath": "/Users/brad/web3/fair-point-client/contracts/FairPoint.sol",
  "compiler": {
    "name": "solc",
    "version": "0.4.24+commit.e67f0147.Emscripten.clang"
  },
  "schemaVersion": "2.0.1",
  "updatedAt": "2018-09-14T18:40:28.579Z"
}